:100000000C942A000C9447000C9447000C94470071
:100010000C9447000C9447000C9447000C94470044
:100020000C9447000C9447000C9447000C94470034
:100030000C9447000C9447000C9447000C94470024
:100040000C9447000C9447000C9447000C94470014
:100050000C94470011241FBECFE5D4E0DEBFCDBF16
:1000600010E0A8E6B0E001C01D92A837B107E1F7A3
:1000700010E0A0E6B0E0EEE2F6E202C005900D92DC
:10008000A836B107D9F70E94D8100C9415130C9418
:100090000000EF92FF920F931F937B018C0120E0F1
:1000A00030E040E05FE40E94490388238CF0C801FF
:1000B000B70120E030E040E05FE40E94C1010E940F
:1000C000A9039B01AC01205030404040504806C07D
:1000D000C801B7010E94A9039B01AC01B901CA0183
:1000E0001F910F91FF90EF900895A0E0B0E0EBE733
:1000F000F0E00C94DE12DC012B01FA019C919230AD
:1001000008F439C1EB018881823008F433C194309E
:1001100069F4843009F02FC111969C91119789815F
:10012000981709F428C1A0E6B0E025C1843009F48D
:1001300021C18230A9F4923009F01DC19A01AD01AC
:1001400088E0EA010990AE01E90109929E0181501F
:10015000C1F7E201898111969C918923818308C1AD
:10016000923009F407C112962D903C901397EB0141
:100170008A819B811496AD90BD90CD90DC901797AD
:10018000EC80FD800E811F819101281B390BB90184
:1001900037FF04C066277727621B730B6032710537
:1001A0000CF061C0121613066CF537014801062EDB
:1001B00004C096948794779467940A94D2F721E0C8
:1001C00030E040E050E004C0220F331F441F551FB1
:1001D0006A95D2F721503040404050402E213F21B7
:1001E00040235123211531054105510521F021E01E
:1001F00030E040E050E079018A01E628F72808293C
:1002000019293CC0232BD1F1260E371E350146019A
:10021000062E04C096948794779467940A94D2F734
:1002200021E030E040E050E004C0220F331F441FC3
:10023000551F6A95D2F721503040404050402A2146
:100240003B214C215D21211531054105510521F04E
:1002500021E030E040E050E059016A01A628B728CB
:10026000C828D9280BC0821593052CF01C01AA249C
:10027000BB24650103C0EE24FF24870111969C91E5
:10028000D20111968C91981709F445C0992339F041
:10029000A80197012A193B094C095D0906C0A6016E
:1002A00095012E193F09400B510B57FD08C01182D3
:1002B0003382228224833583468357831DC081E0A5
:1002C00081833382228288279927DC01821B930B4A
:1002D000A40BB50B84839583A683B7830DC0220F2F
:1002E000331F441F551F24833583468357838281E0
:1002F000938101979383828324813581468157813D
:10030000DA01C9010197A109B1098F5F9F4FAF4F72
:10031000BF4328F30BC0918333822282EA0CFB1C7B
:100320000C1D1D1DE482F5820683178383E0808304
:10033000248135814681578157FF1AC0C901AA27F8
:1003400097FDA095BA2F81709070A070B0705695EF
:10035000479537952795822B932BA42BB52B848318
:100360009583A683B7838281938101969383828349
:10037000DF0101C0D201CD01CDB7DEB7E2E10C94BF
:10038000FA12A0E2B0E0E7ECF1E00C94EA12698323
:100390007A838B839C832D833E834F835887E9E048
:1003A000EE2EF12CEC0EFD1ECE010196B7010E943F
:1003B000D2048E010F5E1F4FCE010596B8010E9438
:1003C000D2048A8991E089278A8BC701B801AE01DE
:1003D000475E5F4F0E9475000E94FD03A096E6E015
:1003E0000C940613A0E2B0E0E8EFF1E00C94EA12FE
:1003F00069837A838B839C832D833E834F835887C5
:10040000F9E0EF2EF12CEC0EFD1ECE010196B701A6
:100410000E94D2048E010F5E1F4FCE010596B801D7
:100420000E94D204C701B801AE01475E5F4F0E942F
:1004300075000E94FD03A096E6E00C940613A0E26E
:10044000B0E0E5E2F2E00C94DE1269837A838B83FC
:100450009C832D833E834F835887CE010196BE0136
:10046000675F7F4F0E94D204CE010596BE016F5E8A
:100470007F4F0E94D2049985923088F0898982301A
:10048000C8F0943019F4823051F404C0843029F457
:10049000923081F480E690E0C6C0923049F420E0CA
:1004A0009A858A89981321E02A87CE010996BBC0D4
:1004B000823049F420E09A858A89981321E02A8BBA
:1004C000CE014196B0C02D843E844F8458886D88FB
:1004D0007E888F88988CEE24FF248701AA24BB2471
:1004E000650140E050E060E070E0E0E0F0E0C10174
:1004F00081709070892BE9F0E60CF71C081D191D1E
:100500009A01AB012A0D3B1D4C1D5D1D80E090E062
:10051000A0E0B0E0E614F7040805190520F481E036
:1005200090E0A0E0B0E0BA01A901480F591F6A1F8E
:100530007B1FAA0CBB1CCC1CDD1C97FE08C081E0F5
:1005400090E0A0E0B0E0A82AB92ACA2ADB2A3196B6
:10055000E032F10549F0660C771C881C991C569412
:10056000479437942794C3CFFA85EA892B893C892D
:100570008B859C85280F391F2E5F3F4F17C0CA01FE
:1005800081709070892B61F016950795F794E79428
:1005900080E090E0A0E0B0E8E82AF92A0A2B1B2BC3
:1005A00076956795579547952F5F3F4F77FDE7CF36
:1005B0000CC0440F551F661F771F17FD4160EE0CDE
:1005C000FF1C001F111F21503040403090E05907A0
:1005D00090E0690790E4790760F32B8F3C8FDB0193
:1005E000CA018F779070A070B07080349105A1051A
:1005F000B10561F447FD0AC0E114F10401051105DC
:1006000029F0405C5F4F6F4F7F4F40781A8EFE1786
:1006100011F081E08A8F4D8F5E8F6F8F78A383E01A
:10062000898FCE0149960E94FD03A096E2E10C94C9
:10063000FA12A8E1B0E0EFE1F3E00C94EA1269836A
:100640007A838B839C832D833E834F83588789E0F5
:10065000E82EF12CEC0EFD1ECE010196B7010E9492
:10066000D2048E010F5E1F4FCE010596B8010E9485
:10067000D2048985823040F08989823028F0C70110
:10068000B8010E944A0501C08FEF6896E6E00C941D
:100690000613A8E1B0E0EFE4F3E00C94EA126983FA
:1006A0007A838B839C832D833E834F83588789E095
:1006B000E82EF12CEC0EFD1ECE010196B7010E9432
:1006C000D2048E010F5E1F4FCE010596B8010E9425
:1006D000D2048985823040F08989823028F0C701B0
:1006E000B8010E944A0501C08FEF6896E6E00C94BD
:1006F0000613A8E1B0E0EFE7F3E00C94EA12698397
:100700007A838B839C832D833E834F83588789E034
:10071000E82EF12CEC0EFD1ECE010196B7010E94D1
:10072000D2048E010F5E1F4FCE010596B8010E94C4
:10073000D2048985823040F08989823028F0C7014F
:10074000B8010E944A0501C081E06896E6E00C9479
:100750000613ACE0B0E0EFEAF3E00C94EE1269832C
:100760007A838B839C83CE010196BE016B5F7F4FA2
:100770000E94D2048D81823061F1823050F1843048
:1007800021F48E81882351F12EC02F81388537FDC9
:1007900020C06E812F3131051CF06623F9F023C093
:1007A0008EE190E0821B930B29853A854B855C8511
:1007B00004C056954795379527958A95D2F76623B5
:1007C000B1F050954095309521953F4F4F4F5F4F79
:1007D0000EC020E030E040E050E009C02FEF3FEFD6
:1007E0004FEF5FE704C020E030E040E050E8B9019F
:1007F000CA012C96E2E00C940A13DF92EF92FF926A
:100800000F931F93FC01E480F58006811781D1804E
:100810008081823048F480E090E0A0E1B0E0E82AF6
:10082000F92A0A2B1B2BA5C0843009F49FC0823003
:1008300021F4EE24FF24870105C0E114F104010531
:10084000110519F4E0E0F0E096C0628173819FEF3A
:10085000623879070CF05BC022E83FEF261B370BAC
:100860002A3131052CF020E030E040E050E02AC091
:10087000B801A701022E04C0769567955795479554
:100880000A94D2F781E090E0A0E0B0E004C0880FC5
:10089000991FAA1FBB1F2A95D2F70197A109B10979
:1008A0008E219F21A023B1230097A105B10521F03E
:1008B00081E090E0A0E0B0E09A01AB01282B392B59
:1008C0004A2B5B2BDA01C9018F779070A070B07052
:1008D00080349105A105B10539F427FF09C0205CDA
:1008E0003F4F4F4F5F4F04C0215C3F4F4F4F5F4F13
:1008F000E0E0F0E02030A0E03A07A0E04A07A0E402
:100900005A0710F0E1E0F0E079018A0127C0603871
:10091000710564F5FB01E158FF4FD801C7018F77DE
:100920009070A070B07080349105A105B10539F4C4
:10093000E7FE0DC080E490E0A0E0B0E004C08FE3EB
:1009400090E0A0E0B0E0E80EF91E0A1F1B1F17FFA1
:1009500005C016950795F794E794319687E01695AC
:100960000795F794E7948A95D1F705C0EE24FF2404
:100970008701EFEFF0E06E2F679566276795902F60
:100980009F77D794DD24D7948E2F8695492F462BB9
:10099000582F5D29B701CA011F910F91FF90EF9069
:1009A000DF900895FC01DB01408151812281622F9B
:1009B0006F7770E0221F2227221F9381892F880FD3
:1009C000822B282F30E0991F9927991F11969C930D
:1009D000119721153105A9F54115510561057105DD
:1009E00011F482E037C082E89FEF13969C938E93B8
:1009F00012979A01AB0167E0220F331F441F551F66
:100A00006A95D1F783E08C930DC0220F331F441FEA
:100A1000551F12968D919C911397019713969C9355
:100A20008E931297203080E0380780E0480780E4FA
:100A3000580758F314962D933D934D935C93179755
:100A400008952F3F310579F4411551056105710570
:100A500019F484E08C93089564FF03C081E08C93C3
:100A600012C01C9210C02F57304013963C932E9307
:100A7000129783E08C9387E0440F551F661F771F02
:100A80008A95D1F7706414964D935D936D937C9322
:100A9000179708951F93DC01FB019C91923008F495
:100AA00047C08081823008F443C0943051F41196DD
:100AB0001C91843099F58181682F70E0611B710968
:100AC0003FC0843021F0923031F48230B9F181811D
:100AD000882389F12DC011961C9111978230F1F075
:100AE00081811817D9F412962D913C911397828128
:100AF00093818217930794F028173907BCF0149656
:100B00008D919D910D90BC91A02D248135814681C0
:100B10005781281739074A075B0718F4112341F05A
:100B20000AC082179307A407B50740F4112319F0F0
:100B300061E070E005C06FEF7FEF02C060E070E041
:100B4000CB011F910895DF93CF93CDB7DEB72797E1
:100B50000FB6F894DEBF0FBECDBF8C836D831B82B2
:100B60001A8219828C818695869586958A838C81D6
:100B7000877089838C81813210F081E08B838A8138
:100B8000853010F082E08B838D81813019F48D8166
:100B9000882311F083E08B838A81282F30E03F8304
:100BA0002E834E815F814130510509F467C08E81EB
:100BB0009F818230910534F42E813F8121153105CA
:100BC00071F047C14E815F814230510509F4A5C0E3
:100BD0008E819F818330910509F4EEC03AC1EAE32A
:100BE000F0E08081482F50E08981282F30E081E0BB
:100BF00090E002C0880F991F2A95E2F79A012823F6
:100C000039238981882F90E0A90102C05595479525
:100C10008A95E2F7CA01009711F483E08B838D81F6
:100C2000813099F4ABE3B0E0EBE3F0E08081482F52
:100C30008C81282F30E081E090E0022E02C0880FE6
:100C4000991F0A94E2F7842B8C938D81882309F0F5
:100C500000C1ABE3B0E0EBE3F0E08081482F8C8192
:100C6000282F30E081E090E0022E02C0880F991F0B
:100C70000A94E2F7809584238C93EBC0E7E3F0E0DD
:100C80008081482F50E08981282F30E081E090E07A
:100C900002C0880F991F2A95E2F79A012823392369
:100CA0008981882F90E0A90102C0559547958A95C2
:100CB000E2F7CA01009711F483E08B838D818130C4
:100CC00099F4A8E3B0E0E8E3F0E08081482F8C815C
:100CD000282F30E081E090E0022E02C0880F991F9B
:100CE0000A94E2F7842B8C938D81882309F0B1C09C
:100CF000A8E3B0E0E8E3F0E08081482F8C81282F62
:100D000030E081E090E0022E02C0880F991F0A9423
:100D1000E2F7809584238C939CC0E4E3F0E080812B
:100D2000482F50E08981282F30E081E090E002C018
:100D3000880F991F2A95E2F79A0128233923898180
:100D4000882F90E0A90102C0559547958A95E2F752
:100D5000CA01009711F483E08B838D81813099F46F
:100D6000A5E3B0E0E5E3F0E08081482F8C81282FF7
:100D700030E081E090E0022E02C0880F991F0A94B3
:100D8000E2F7842B8C938D81882309F062C0A5E360
:100D9000B0E0E5E3F0E08081482F8C81282F30E03F
:100DA00081E090E0022E02C0880F991F0A94E2F7BA
:100DB000809584238C934DC0E1E3F0E08081482F3F
:100DC00050E08981282F30E081E090E002C0880F58
:100DD000991F2A95E2F79A01282339238981882FC0
:100DE00090E0A90102C0559547958A95E2F7CA019E
:100DF000009711F483E08B838D81813099F4A2E315
:100E0000B0E0E2E3F0E08081482F8C81282F30E0D1
:100E100081E090E0022E02C0880F991F0A94E2F749
:100E2000842B8C938D818823A1F4A2E3B0E0E2E3CC
:100E3000F0E08081482F8C81282F30E081E090E025
:100E4000022E02C0880F991F0A94E2F7809584232E
:100E50008C938B8127960FB6F894DEBF0FBECDBF63
:100E6000CF91DF910895DF93CF93CDB7DEB7289769
:100E70000FB6F894DEBF0FBECDBF8C837E836D832B
:100E80001B821A8219828C818695869586958A8323
:100E90008C81877089838C81813210F081E08B8313
:100EA0008A81853010F082E08B838D819E8100974E
:100EB00011F484E08B838A81282F30E038872F83D8
:100EC0004F8158854130510509F45AC08F8198856A
:100ED0008230910534F42F8138852115310571F068
:100EE00014C14F8158854230510509F48BC08F8160
:100EF00098858330910509F4C7C007C1EAE3F0E0A3
:100F00008081482F50E08981282F30E081E090E0F7
:100F100002C0880F991F2A95E2F79A0128233923E6
:100F20008981882F90E0A90102C0559547958A953F
:100F3000E2F7CA018130910519F483E08B83E5C0A3
:100F4000E9E3F0E08081482F50E08981282F30E0EC
:100F500081E090E002C0880F991F2A95E2F79A017C
:100F6000282339238981882F90E0A90102C0559553
:100F700047958A95E2F7CA01ED81FE818083C5C05D
:100F8000E7E3F0E08081482F50E08981282F30E0AE
:100F900081E090E002C0880F991F2A95E2F79A013C
:100FA000282339238981882F90E0A90102C0559513
:100FB00047958A95E2F7CA018130910519F483E0DB
:100FC0008B83A3C0E6E3F0E08081482F50E0898165
:100FD000282F30E081E090E002C0880F991F2A9509
:100FE000E2F79A01282339238981882F90E0A9010B
:100FF00002C0559547958A95E2F7CA01ED81FE81B9
:10100000808383C0E4E3F0E08081482F50E0898151
:10101000282F30E081E090E002C0880F991F2A95C8
:10102000E2F79A01282339238981882F90E0A901CA
:1010300002C0559547958A95E2F7CA01813091051E
:1010400019F483E08B8361C0E3E3F0E08081482FF3
:1010500050E08981282F30E081E090E002C0880FC5
:10106000991F2A95E2F79A01282339238981882F2D
:1010700090E0A90102C0559547958A95E2F7CA010B
:10108000ED81FE81808341C0E1E3F0E08081482F63
:1010900050E08981282F30E081E090E002C0880F85
:1010A000991F2A95E2F79A01282339238981882FED
:1010B00090E0A90102C0559547958A95E2F7CA01CB
:1010C0008130910519F483E08B831FC0E0E3F0E0E9
:1010D0008081482F50E08981282F30E081E090E026
:1010E00002C0880F991F2A95E2F79A012823392315
:1010F0008981882F90E0A90102C0559547958A956E
:10110000E2F7CA01ED81FE8180838B8128960FB6BC
:10111000F894DEBF0FBECDBFCF91DF910895DF936E
:10112000CF93CDB7DEB729970FB6F894DEBF0FBEC9
:10113000CDBF8A836B8319828A81853010F082E06B
:1011400089838A81282F30E0398728878885998587
:1011500081309105E9F028853985223031052CF45C
:1011600088859985009761F02AC0288539852230C5
:101170003105B1F08885998583309105C9F01FC08C
:10118000EBE3F0E09081EBE3F0E08B81808317C02C
:10119000E8E3F0E02081E8E3F0E08B8180830FC09A
:1011A000E5E3F0E03081E5E3F0E08B81808307C088
:1011B000E2E3F0E08081E2E3F0E08B8180838981EB
:1011C00029960FB6F894DEBF0FBECDBFCF91DF9149
:1011D0000895DF93CF9300D000D000D0CDB7DEB715
:1011E0008A837C836B8319828A81853010F082E048
:1011F00089838B819C81009711F484E089838A81A3
:10120000282F30E03E832D838D819E818130910592
:10121000E1F02D813E81223031052CF48D819E81BB
:10122000009761F026C02D813E8122303105A1F06A
:101230008D819E8183309105B1F01BC0E9E3F0E020
:101240008081EB81FC81808314C0E6E3F0E0808143
:10125000EB81FC8180830DC0E3E3F0E08081EB81D2
:10126000FC81808306C0E0E3F0E08081EB81FC81BB
:101270008083898126960FB6F894DEBF0FBECDBF5E
:10128000CF91DF910895DF93CF9300D000D000D0AD
:10129000CDB7DEB78C831B821A8219828C8186952A
:1012A000869586958A838C81877089838C8181322B
:1012B00010F081E08B838A81853010F082E08B838F
:1012C0008A81282F30E03E832D838D819E8181305D
:1012D000910549F12D813E81223031052CF48D811B
:1012E0009E81009761F05AC02D813E8122303105E8
:1012F00071F18D819E8183309105E9F14FC0AAE3A0
:10130000B0E0EAE3F0E08081482F8981282F30E0C7
:1013100081E090E0022E02C0880F991F0A94E2F744
:1013200084278C933BC0A7E3B0E0E7E3F0E0808143
:10133000482F8981282F30E081E090E0022E02C002
:10134000880F991F0A94E2F784278C9327C0A4E39F
:10135000B0E0E4E3F0E08081482F8981282F30E07D
:1013600081E090E0022E02C0880F991F0A94E2F7F4
:1013700084278C9313C0A1E3B0E0E1E3F0E0808127
:10138000482F8981282F30E081E090E0022E02C0B2
:10139000880F991F0A94E2F784278C938B812696F5
:1013A0000FB6F894DEBF0FBECDBFCF91DF91089589
:1013B000DF93CF93CDB7DEB7EAE3F0E08FEF808322
:1013C000E7E3F0E08FEF8083E4E3F0E08FEF8083EA
:1013D000E1E3F0E08FEF8083EBE3F0E01082E8E3FD
:1013E000F0E01082E5E3F0E01082E2E3F0E010824A
:1013F000CF91DF910895DF93CF93CDB7DEB72F97CD
:101400000FB6F894DEBF0FBECDBF8C836D831B82F9
:101410001A8219828C818695869586958A838C811D
:10142000877089838C81813210F081E08B838A817F
:10143000853010F082E08B838D81863018F48D81A9
:10144000823010F483E08B838A81282F30E03F873D
:101450002E878E859F858130910509F4D6C02E8513
:101460003F85223031052CF48E859F85009771F0E1
:1014700008C32E853F852230310509F485C18E854C
:101480009F858330910509F43EC2FBC28D81282FD0
:1014900030E03D872C878C859D858330910509F44C
:1014A0003EC02C853D852430310534F48C859D85E6
:1014B0008230910571F0E5C22C853D8524303105DF
:1014C00009F454C08C859D858530910509F476C05A
:1014D000D8C2AAE3B0E0EAE3F0E08081482F898136
:1014E000282F30E081E090E002C0880F991F2A95F4
:1014F000E2F7842B8C93ABE3B0E0EBE3F0E0808188
:10150000482F8981282F30E081E090E0022E02C030
:10151000880F991F0A94E2F7842B8C93B2C2AAE336
:10152000B0E0EAE3F0E08081482F8981282F30E0A5
:1015300081E090E002C0880F991F2A95E2F7842B82
:101540008C93ABE3B0E0EBE3F0E08081482F89813E
:10155000282F30E081E090E0022E02C0880F991F12
:101560000A94E2F7809584238C938BC2AAE3B0E0BF
:10157000EAE3F0E08081482F8981282F30E081E084
:1015800090E002C0880F991F2A95E2F78095842386
:101590008C93ABE3B0E0EBE3F0E08081482F8981EE
:1015A000282F30E081E090E0022E02C0880F991FC2
:1015B0000A94E2F7809584238C9363C2AAE3B0E097
:1015C000EAE3F0E08081482F8981282F30E081E034
:1015D00090E002C0880F991F2A95E2F78095842336
:1015E0008C93ABE3B0E0EBE3F0E08081482F89819E
:1015F000282F30E081E090E0022E02C0880F991F72
:101600000A94E2F7842B8C933CC28D81282F30E022
:101610003B872A878A859B858330910509F43EC0E4
:101620002A853B852430310534F48A859B858230B8
:10163000910571F026C22A853B852430310509F4D5
:1016400054C08A859B858530910509F476C019C2FE
:10165000A7E3B0E0E7E3F0E08081482F8981282FFD
:1016600030E081E090E002C0880F991F2A95E2F7F0
:10167000842B8C93A8E3B0E0E8E3F0E08081482F6E
:101680008981282F30E081E090E0022E02C0880F8F
:10169000991F0A94E2F7842B8C93F3C1A7E3B0E07F
:1016A000E7E3F0E08081482F8981282F30E081E056
:1016B00090E002C0880F991F2A95E2F7842B8C9343
:1016C000A8E3B0E0E8E3F0E08081482F8981282F8B
:1016D00030E081E090E0022E02C0880F991F0A944A
:1016E000E2F7809584238C93CCC1A7E3B0E0E7E3D5
:1016F000F0E08081482F8981282F30E081E090E060
:1017000002C0880F991F2A95E2F7809584238C9355
:10171000A8E3B0E0E8E3F0E08081482F8981282F3A
:1017200030E081E090E0022E02C0880F991F0A94F9
:10173000E2F7809584238C93A4C1A7E3B0E0E7E3AC
:10174000F0E08081482F8981282F30E081E090E00F
:1017500002C0880F991F2A95E2F7809584238C9305
:10176000A8E3B0E0E8E3F0E08081482F8981282FEA
:1017700030E081E090E0022E02C0880F991F0A94A9
:10178000E2F7842B8C937DC18D81282F30E039873F
:101790002887888599858330910509F43EC028857E
:1017A00039852430310534F4888599858230910556
:1017B00071F067C1288539852430310509F454C09A
:1017C000888599858530910509F476C05AC1A4E3CE
:1017D000B0E0E4E3F0E08081482F8981282F30E0F9
:1017E00081E090E002C0880F991F2A95E2F7842BD0
:1017F0008C93A5E3B0E0E5E3F0E08081482F898198
:10180000282F30E081E090E0022E02C0880F991F5F
:101810000A94E2F7842B8C9334C1A4E3B0E0E4E3B0
:10182000F0E08081482F8981282F30E081E090E02E
:1018300002C0880F991F2A95E2F7842B8C93A5E3A9
:10184000B0E0E5E3F0E08081482F8981282F30E087
:1018500081E090E0022E02C0880F991F0A94E2F7FF
:10186000809584238C930DC1A4E3B0E0E4E3F0E021
:101870008081482F8981282F30E081E090E002C0EC
:10188000880F991F2A95E2F7809584238C93A5E30E
:10189000B0E0E5E3F0E08081482F8981282F30E037
:1018A00081E090E0022E02C0880F991F0A94E2F7AF
:1018B000809584238C93E5C0A4E3B0E0E4E3F0E0FA
:1018C0008081482F8981282F30E081E090E002C09C
:1018D000880F991F2A95E2F7809584238C93A5E3BE
:1018E000B0E0E5E3F0E08081482F8981282F30E0E7
:1018F00081E090E0022E02C0880F991F0A94E2F75F
:10190000842B8C93BEC08D81282F30E03F832E83A3
:101910008E819F818330910509F43EC02E813F81E5
:101920002430310534F48E819F818230910571F02D
:10193000A8C02E813F812430310509F454C08E8126
:101940009F818530910509F476C09BC0A1E3B0E08A
:10195000E1E3F0E08081482F8981282F30E081E0A9
:1019600090E002C0880F991F2A95E2F7842B8C9390
:10197000A2E3B0E0E2E3F0E08081482F8981282FE4
:1019800030E081E090E0022E02C0880F991F0A9497
:10199000E2F7842B8C9375C0A1E3B0E0E1E3F0E0C3
:1019A0008081482F8981282F30E081E090E002C0BB
:1019B000880F991F2A95E2F7842B8C93A2E3B0E05D
:1019C000E2E3F0E08081482F8981282F30E081E038
:1019D00090E0022E02C0880F991F0A94E2F78095CA
:1019E00084238C934EC0A1E3B0E0E1E3F0E080817A
:1019F000482F8981282F30E081E090E002C0880FD5
:101A0000991F2A95E2F7809584238C93A2E3B0E096
:101A1000E2E3F0E08081482F8981282F30E081E0E7
:101A200090E0022E02C0880F991F0A94E2F7809579
:101A300084238C9326C0A1E3B0E0E1E3F0E0808151
:101A4000482F8981282F30E081E090E002C0880F84
:101A5000991F2A95E2F7809584238C93A2E3B0E046
:101A6000E2E3F0E08081482F8981282F30E081E097
:101A700090E0022E02C0880F991F0A94E2F7842B8F
:101A80008C938B812F960FB6F894DEBF0FBECDBF1F
:101A9000CF91DF910895DF93CF93CDB7DEB72F9726
:101AA0000FB6F894DEBF0FBECDBF8C836D831B8253
:101AB0001A8219828C818695869586958A838C8177
:101AC000877089838C81813210F081E08B838A81D9
:101AD000853010F082E08B838D81863019F48D8102
:101AE000873011F084E08B838A81282F30E03F8794
:101AF0002E878E859F858130910509F450C02E85F3
:101B00003F85223031052CF48E859F85009771F03A
:101B1000F0C02E853F852230310509F479C08E85CD
:101B20009F858330910509F4ACC0E3C08D81282FD7
:101B300030E03D872C878C859D858630910531F07E
:101B40002C853D8527303105B1F0D3C0AAE3B0E044
:101B5000EAE3F0E08081482F8981282F30E081E09E
:101B600090E0022E02C0880F991F0A94E2F7809538
:101B700084238C93BEC0ABE3B0E0EBE3F0E0808164
:101B8000482F8981282F30E081E090E0022E02C0AA
:101B9000880F991F0A94E2F7842B8C93AAC08D8139
:101BA000282F30E03B872A878A859B8586309105E0
:101BB00031F02A853B8527303105B1F09AC0A7E383
:101BC000B0E0E7E3F0E08081482F8981282F30E002
:101BD00081E090E0022E02C0880F991F0A94E2F77C
:101BE000809584238C9385C0A8E3B0E0E8E3F0E01F
:101BF0008081482F8981282F30E081E090E0022EFB
:101C000002C0880F991F0A94E2F7842B8C9371C04D
:101C10008D81282F30E039872887888599858630FF
:101C2000910531F02885398527303105B1F061C043
:101C3000A4E3B0E0E4E3F0E08081482F8981282F1D
:101C400030E081E090E0022E02C0880F991F0A94D4
:101C5000E2F7809584238C934CC0A5E3B0E0E5E3E4
:101C6000F0E08081482F8981282F30E081E090E0EA
:101C7000022E02C0880F991F0A94E2F7842B8C93DE
:101C800038C08D81282F30E03F832E838E819F8145
:101C90008630910531F02E813F8127303105B1F03A
:101CA00028C0A1E3B0E0E1E3F0E08081482F898122
:101CB000282F30E081E090E0022E02C0880F991FAB
:101CC0000A94E2F7809584238C9313C0A2E3B0E0DA
:101CD000E2E3F0E08081482F8981282F30E081E025
:101CE00090E0022E02C0880F991F0A94E2F7842B1D
:101CF0008C938B812F960FB6F894DEBF0FBECDBFAD
:101D0000CF91DF910895DF93CF93CDB7DEB7809168
:101D100068008F5F80936800809168008A3039F492
:101D200010926800809169008F5F809369008091B4
:101D30006900863039F41092690080916A008F5FE3
:101D400080936A0080916A008A3039F410926A00A8
:101D500080916B008F5F80936B0080916B00863069
:101D600041F4109268001092690010926A0010927B
:101D70006B00CF91DF910895DF93CF93CDB7DEB79E
:101D8000C154D0400FB6F894DEBF0FBECDBF8091D6
:101D90006D008F8B90916E00988F80916F00898F6E
:101DA000909170009A8F809171008B8F909172004A
:101DB0009C8F809173008D8F909174009E8F81E035
:101DC0008F8F18A219A21AA21BA21CA21DA21EA2CA
:101DD0009F898F8D980F9FA391E09FA78FA19F89C7
:101DE000891708F01FA6888D98A1890F88A781E020
:101DF00088AB98A5888D981708F018AA9FA588A584
:101E0000980F99AB91E09AAB89A998A5891708F02A
:101E10001AAA88A99AA9892B88AB89A988A7998D1C
:101E200089A1980F99A791E09BAB89A5998D8917F6
:101E300008F01BAA88A999A5890F8CAB81E08DAB0E
:101E40009CA989A5981708F01DAA9BA98DA9982B74
:101E50009BAB9CA999A78A8D9AA1890F8AA781E03B
:101E60008EAB9AA58A8D981708F01EAA9BA98AA501
:101E7000980F9FAB91E098AF8FA99AA5891708F0AA
:101E800018AE8EA998AD892B8EAB8FA98AA79B8D92
:101E90008BA1980F9BA791E099AF8BA59B8D89177C
:101EA00008F019AE8EA99BA5890F8AAF81E08BAF90
:101EB0009AAD8BA5981708F01BAE99AD8BAD982BFA
:101EC00099AF9AAD9BA78C8D9CA1890F8CA781E0BF
:101ED0008CAF9CA58C8D981708F01CAE99AD8CA585
:101EE000980F9DAF91E09EAF8DAD9CA5891708F02E
:101EF0001EAE8CAD9EAD892B8CAF8DAD8CA79D8D0C
:101F00008DA1980F9DA791E09FAF8DA59D8D8917FD
:101F100008F01FAE8CAD9DA5890F21968FAF21973C
:101F200081E022968FAF229721969FAD21978DA5B4
:101F3000981718F022961FAE22979FAD22968FAD6C
:101F40002297982B9FAF21969FAD21979DA78E8DAD
:101F50009EA1890F8EA78FAD9EA5890F8EA72FA159
:101F600038A549A55AA56BA57CA58DA59EA520934E
:101F70006D0030936E0040936F005093700060933B
:101F8000710070937200809373009093740080E0EE
:101F900090E0A0E8BFE38B879C87AD87BE876B8509
:101FA0007C858D859E8520E030E04AE753E40E94E1
:101FB0001F02DC01CB018F839887A987BA876F81C5
:101FC000788589859A8520E030E040E85FE30E94CB
:101FD000790388232CF481E090E09E838D833FC0B9
:101FE0006F81788589859A8520E03FEF4FE757E438
:101FF0000E94190318164CF56B857C858D859E858E
:1020000020E030E040E251E40E941F02DC01CB01FD
:10201000BC01CD010E944900DC01CB019E838D8370
:102020000FC089E190E09C838B838B819C81019719
:10203000F1F79C838B838D819E8101979E838D8395
:102040008D819E81009769F714C06F81788589859D
:102050009A850E944900DC01CB019E838D838D818E
:102060009E819A83898389819A810197F1F79A8366
:10207000898380916D008F8790916E00988B8091FD
:102080006F00898B909170009A8B809171008B8B7F
:10209000909172009C8B809173008D8B9091740055
:1020A0009E8B8F85893139F59889992321F5898906
:1020B000882309F59A899923F1F48B898823D9F427
:1020C0009C899923C1F48D898823A9F49E89992339
:1020D00091F40E94830E10926D0010926E00109287
:1020E0006F001092700010927100109272001092A6
:1020F000730010927400CF5BDF4F0FB6F894DEBF11
:102100000FBECDBFCF91DF910895DF93CF93CDB7B1
:10211000DEB726E730E08AE1B9010E94330727E7FE
:1021200030E08BE1B9010E94330725E730E08AE017
:10213000B9010E94330780917600882341F4109200
:1021400068001092690010926A0010926B008091F2
:102150007700882319F481E080936C0080917500EA
:10216000882311F410926C00CF91DF910895DF93D2
:10217000CF93CDB7DEB70E94D8098AE166E00E940E
:102180004B0D8BE166E00E944B0D8AE066E00E94F9
:102190004B0D8AE165E00E94FB098BE165E00E943E
:1021A000FB098AE065E00E94FB09CF91DF91089569
:1021B000DF93CF93CDB7DEB7E8970FB6F894DEBFC5
:1021C0000FBECDBF0E94B7100E94851080E061E075
:1021D0000E948F089091680082E0692F0E948F080A
:1021E00080E090E0A0E8BFE38DAB9EABAFABB8AFB3
:1021F0006DA97EA98FA998AD20E030E04AE753E4AD
:102200000E941F02DC01CB0189AB9AABABABBCAB2C
:1022100069A97AA98BA99CA920E030E040E85FE396
:102220000E94790388232CF481E090E098AB8FA77B
:102230003FC069A97AA98BA99CA920E03FEF4FE78D
:1022400057E40E94190318164CF56DA97EA98FA9B1
:1022500098AD20E030E040E251E40E941F02DC0132
:10226000CB01BC01CD010E944900DC01CB0198AB40
:102270008FA70FC089E190E09EA78DA78DA59EA591
:102280000197F1F79EA78DA78FA598A9019798AB05
:102290008FA78FA598A9009769F714C069A97AA993
:1022A0008BA99CA90E944900DC01CB0198AB8FA7A8
:1022B0008FA598A99CA78BA78BA59CA50197F1F743
:1022C0009CA78BA780E062E00E948F089091690034
:1022D00082E0692F0E948F0880E090E0A0E8BFE3D1
:1022E0008FA398A7A9A7BAA76FA178A589A59AA532
:1022F00020E030E04AE753E40E941F02DC01CB01FA
:102300008BA39CA3ADA3BEA36BA17CA18DA19EA119
:1023100020E030E040E85FE30E94790388232CF45A
:1023200081E090E09AA389A33FC06BA17CA18DA11D
:102330009EA120E03FEF4FE757E40E9419031816D3
:102340004CF56FA178A589A59AA520E030E040E280
:1023500051E40E941F02DC01CB01BC01CD010E94AF
:102360004900DC01CB019AA389A30FC089E190E069
:1023700098A38F8F8F8D98A10197F1F798A38F8FD6
:1023800089A19AA101979AA389A389A19AA10097EB
:1023900069F714C06BA17CA18DA19EA10E94490088
:1023A000DC01CB019AA389A389A19AA19E8F8D8F6D
:1023B0008D8D9E8D0197F1F79E8F8D8F80E064E06B
:1023C0000E948F0890916A0082E0692F0E948F0816
:1023D00080E090E0A0E8BFE3898F9A8FAB8FBC8F3D
:1023E000698D7A8D8B8D9C8D20E030E04AE753E437
:1023F0000E941F02DC01CB018D8B9E8BAF8BB88FAF
:102400006D897E898F89988D20E030E040E85FE318
:102410000E94790388232CF481E090E09C8B8B8BC5
:102420003FC06D897E898F89988D20E03FEF4FE70F
:1024300057E40E94190318164CF5698D7A8D8B8D1F
:102440009C8D20E030E040E251E40E941F02DC015C
:10245000CB01BC01CD010E944900DC01CB019C8B6A
:102460008B8B0FC089E190E09A8B898B89899A893F
:102470000197F1F79A8B898B8B899C8901979C8BAB
:102480008B8B8B899C89009769F714C06D897E8935
:102490008F89988D0E944900DC01CB019C8B8B8B2E
:1024A0008B899C89988B8F878F8598890197F1F705
:1024B000988B8F8780E068E00E948F0890916B0076
:1024C00082E0692F0E948F0880E090E0A0E8BFE3DF
:1024D0008B879C87AD87BE876B857C858D859E8528
:1024E00020E030E04AE753E40E941F02DC01CB0108
:1024F0008F839887A987BA876F81788589859A8520
:1025000020E030E040E85FE30E94790388232CF468
:1025100081E090E09E838D833FC06F8178858985BF
:102520009A8520E03FEF4FE757E40E941903181601
:102530004CF56B857C858D859E8520E030E040E202
:1025400051E40E941F02DC01CB01BC01CD010E94BD
:102550004900DC01CB019E838D830FC089E190E0AF
:102560009C838B838B819C810197F1F79C838B8368
:102570008D819E8101979E838D838D819E810097A1
:1025800069F714C06F81788589859A850E94490012
:10259000DC01CB019E838D838D819E819A8389830B
:1025A00089819A810197F1F79A83898380916C00E0
:1025B000882309F009CE0E94BC0E06CE2F923F92CE
:1025C0004F925F926F927F928F929F92AF92BF9243
:1025D000CF92DF92EF92FF920F931F93CF93DF93EF
:1025E000CDB7DEB7CA1BDB0B0FB6F894DEBF0FBE4C
:1025F000CDBF09942A88398848885F846E847D8499
:102600008C849B84AA84B984C884DF80EE80FD809A
:102610000C811B81AA81B981CE0FD11D0FB6F89410
:0E262000DEBF0FBECDBFED010895F894FFCFD1
:08262E000000000000000000A4
:00000001FF
